{
  "_format": "hh-sol-artifact-1",
  "contractName": "BetNFT",
  "sourceName": "contracts/BetNFT.sol",
  "abi": [
    {
      "inputs": [],
      "stateMutability": "nonpayable",
      "type": "constructor"
    },
    {
      "inputs": [
        {
          "internalType": "address",
          "name": "sender",
          "type": "address"
        },
        {
          "internalType": "uint256",
          "name": "tokenId",
          "type": "uint256"
        },
        {
          "internalType": "address",
          "name": "owner",
          "type": "address"
        }
      ],
      "name": "ERC721IncorrectOwner",
      "type": "error"
    },
    {
      "inputs": [
        {
          "internalType": "address",
          "name": "operator",
          "type": "address"
        },
        {
          "internalType": "uint256",
          "name": "tokenId",
          "type": "uint256"
        }
      ],
      "name": "ERC721InsufficientApproval",
      "type": "error"
    },
    {
      "inputs": [
        {
          "internalType": "address",
          "name": "approver",
          "type": "address"
        }
      ],
      "name": "ERC721InvalidApprover",
      "type": "error"
    },
    {
      "inputs": [
        {
          "internalType": "address",
          "name": "operator",
          "type": "address"
        }
      ],
      "name": "ERC721InvalidOperator",
      "type": "error"
    },
    {
      "inputs": [
        {
          "internalType": "address",
          "name": "owner",
          "type": "address"
        }
      ],
      "name": "ERC721InvalidOwner",
      "type": "error"
    },
    {
      "inputs": [
        {
          "internalType": "address",
          "name": "receiver",
          "type": "address"
        }
      ],
      "name": "ERC721InvalidReceiver",
      "type": "error"
    },
    {
      "inputs": [
        {
          "internalType": "address",
          "name": "sender",
          "type": "address"
        }
      ],
      "name": "ERC721InvalidSender",
      "type": "error"
    },
    {
      "inputs": [
        {
          "internalType": "uint256",
          "name": "tokenId",
          "type": "uint256"
        }
      ],
      "name": "ERC721NonexistentToken",
      "type": "error"
    },
    {
      "anonymous": false,
      "inputs": [
        {
          "indexed": true,
          "internalType": "address",
          "name": "owner",
          "type": "address"
        },
        {
          "indexed": true,
          "internalType": "address",
          "name": "approved",
          "type": "address"
        },
        {
          "indexed": true,
          "internalType": "uint256",
          "name": "tokenId",
          "type": "uint256"
        }
      ],
      "name": "Approval",
      "type": "event"
    },
    {
      "anonymous": false,
      "inputs": [
        {
          "indexed": true,
          "internalType": "address",
          "name": "owner",
          "type": "address"
        },
        {
          "indexed": true,
          "internalType": "address",
          "name": "operator",
          "type": "address"
        },
        {
          "indexed": false,
          "internalType": "bool",
          "name": "approved",
          "type": "bool"
        }
      ],
      "name": "ApprovalForAll",
      "type": "event"
    },
    {
      "anonymous": false,
      "inputs": [
        {
          "indexed": true,
          "internalType": "address",
          "name": "from",
          "type": "address"
        },
        {
          "indexed": true,
          "internalType": "address",
          "name": "to",
          "type": "address"
        },
        {
          "indexed": true,
          "internalType": "uint256",
          "name": "tokenId",
          "type": "uint256"
        }
      ],
      "name": "Transfer",
      "type": "event"
    },
    {
      "inputs": [
        {
          "internalType": "address",
          "name": "to",
          "type": "address"
        },
        {
          "internalType": "uint256",
          "name": "tokenId",
          "type": "uint256"
        }
      ],
      "name": "approve",
      "outputs": [],
      "stateMutability": "nonpayable",
      "type": "function"
    },
    {
      "inputs": [
        {
          "internalType": "address",
          "name": "owner",
          "type": "address"
        }
      ],
      "name": "balanceOf",
      "outputs": [
        {
          "internalType": "uint256",
          "name": "",
          "type": "uint256"
        }
      ],
      "stateMutability": "view",
      "type": "function"
    },
    {
      "inputs": [
        {
          "internalType": "uint256",
          "name": "tokenId",
          "type": "uint256"
        }
      ],
      "name": "cancelSale",
      "outputs": [],
      "stateMutability": "nonpayable",
      "type": "function"
    },
    {
      "inputs": [
        {
          "internalType": "uint256",
          "name": "tokenId",
          "type": "uint256"
        },
        {
          "internalType": "address",
          "name": "buyer",
          "type": "address"
        }
      ],
      "name": "executeSale",
      "outputs": [],
      "stateMutability": "nonpayable",
      "type": "function"
    },
    {
      "inputs": [
        {
          "internalType": "uint256",
          "name": "tokenId",
          "type": "uint256"
        }
      ],
      "name": "getApproved",
      "outputs": [
        {
          "internalType": "address",
          "name": "",
          "type": "address"
        }
      ],
      "stateMutability": "view",
      "type": "function"
    },
    {
      "inputs": [],
      "name": "getCurrentTokenId",
      "outputs": [
        {
          "internalType": "uint256",
          "name": "",
          "type": "uint256"
        }
      ],
      "stateMutability": "view",
      "type": "function"
    },
    {
      "inputs": [
        {
          "internalType": "uint256",
          "name": "tokenId",
          "type": "uint256"
        }
      ],
      "name": "getTicketInfo",
      "outputs": [
        {
          "components": [
            {
              "internalType": "uint256",
              "name": "projectId",
              "type": "uint256"
            },
            {
              "internalType": "uint256",
              "name": "buyPrice",
              "type": "uint256"
            },
            {
              "internalType": "uint256",
              "name": "buyTime",
              "type": "uint256"
            },
            {
              "internalType": "address",
              "name": "originalOwner",
              "type": "address"
            }
          ],
          "internalType": "struct BetNFT.TicketInfo",
          "name": "",
          "type": "tuple"
        }
      ],
      "stateMutability": "view",
      "type": "function"
    },
    {
      "inputs": [
        {
          "internalType": "address",
          "name": "owner",
          "type": "address"
        },
        {
          "internalType": "address",
          "name": "operator",
          "type": "address"
        }
      ],
      "name": "isApprovedForAll",
      "outputs": [
        {
          "internalType": "bool",
          "name": "",
          "type": "bool"
        }
      ],
      "stateMutability": "view",
      "type": "function"
    },
    {
      "inputs": [
        {
          "internalType": "uint256",
          "name": "",
          "type": "uint256"
        }
      ],
      "name": "isListed",
      "outputs": [
        {
          "internalType": "bool",
          "name": "",
          "type": "bool"
        }
      ],
      "stateMutability": "view",
      "type": "function"
    },
    {
      "inputs": [
        {
          "internalType": "uint256",
          "name": "tokenId",
          "type": "uint256"
        },
        {
          "internalType": "uint256",
          "name": "price",
          "type": "uint256"
        },
        {
          "internalType": "address",
          "name": "caller",
          "type": "address"
        }
      ],
      "name": "listForSale",
      "outputs": [],
      "stateMutability": "nonpayable",
      "type": "function"
    },
    {
      "inputs": [
        {
          "internalType": "uint256",
          "name": "",
          "type": "uint256"
        }
      ],
      "name": "listingPrice",
      "outputs": [
        {
          "internalType": "uint256",
          "name": "",
          "type": "uint256"
        }
      ],
      "stateMutability": "view",
      "type": "function"
    },
    {
      "inputs": [],
      "name": "marketplace",
      "outputs": [
        {
          "internalType": "address",
          "name": "",
          "type": "address"
        }
      ],
      "stateMutability": "view",
      "type": "function"
    },
    {
      "inputs": [
        {
          "internalType": "address",
          "name": "to",
          "type": "address"
        },
        {
          "internalType": "uint256",
          "name": "projectId",
          "type": "uint256"
        },
        {
          "internalType": "uint256",
          "name": "price",
          "type": "uint256"
        }
      ],
      "name": "mintTicket",
      "outputs": [
        {
          "internalType": "uint256",
          "name": "",
          "type": "uint256"
        }
      ],
      "stateMutability": "nonpayable",
      "type": "function"
    },
    {
      "inputs": [],
      "name": "name",
      "outputs": [
        {
          "internalType": "string",
          "name": "",
          "type": "string"
        }
      ],
      "stateMutability": "view",
      "type": "function"
    },
    {
      "inputs": [
        {
          "internalType": "uint256",
          "name": "tokenId",
          "type": "uint256"
        }
      ],
      "name": "ownerOf",
      "outputs": [
        {
          "internalType": "address",
          "name": "",
          "type": "address"
        }
      ],
      "stateMutability": "view",
      "type": "function"
    },
    {
      "inputs": [
        {
          "internalType": "address",
          "name": "from",
          "type": "address"
        },
        {
          "internalType": "address",
          "name": "to",
          "type": "address"
        },
        {
          "internalType": "uint256",
          "name": "tokenId",
          "type": "uint256"
        }
      ],
      "name": "safeTransferFrom",
      "outputs": [],
      "stateMutability": "nonpayable",
      "type": "function"
    },
    {
      "inputs": [
        {
          "internalType": "address",
          "name": "from",
          "type": "address"
        },
        {
          "internalType": "address",
          "name": "to",
          "type": "address"
        },
        {
          "internalType": "uint256",
          "name": "tokenId",
          "type": "uint256"
        },
        {
          "internalType": "bytes",
          "name": "data",
          "type": "bytes"
        }
      ],
      "name": "safeTransferFrom",
      "outputs": [],
      "stateMutability": "nonpayable",
      "type": "function"
    },
    {
      "inputs": [
        {
          "internalType": "address",
          "name": "operator",
          "type": "address"
        },
        {
          "internalType": "bool",
          "name": "approved",
          "type": "bool"
        }
      ],
      "name": "setApprovalForAll",
      "outputs": [],
      "stateMutability": "nonpayable",
      "type": "function"
    },
    {
      "inputs": [
        {
          "internalType": "address",
          "name": "_marketplace",
          "type": "address"
        }
      ],
      "name": "setMarketplace",
      "outputs": [],
      "stateMutability": "nonpayable",
      "type": "function"
    },
    {
      "inputs": [
        {
          "internalType": "bytes4",
          "name": "interfaceId",
          "type": "bytes4"
        }
      ],
      "name": "supportsInterface",
      "outputs": [
        {
          "internalType": "bool",
          "name": "",
          "type": "bool"
        }
      ],
      "stateMutability": "view",
      "type": "function"
    },
    {
      "inputs": [],
      "name": "symbol",
      "outputs": [
        {
          "internalType": "string",
          "name": "",
          "type": "string"
        }
      ],
      "stateMutability": "view",
      "type": "function"
    },
    {
      "inputs": [
        {
          "internalType": "uint256",
          "name": "",
          "type": "uint256"
        }
      ],
      "name": "ticketInfo",
      "outputs": [
        {
          "internalType": "uint256",
          "name": "projectId",
          "type": "uint256"
        },
        {
          "internalType": "uint256",
          "name": "buyPrice",
          "type": "uint256"
        },
        {
          "internalType": "uint256",
          "name": "buyTime",
          "type": "uint256"
        },
        {
          "internalType": "address",
          "name": "originalOwner",
          "type": "address"
        }
      ],
      "stateMutability": "view",
      "type": "function"
    },
    {
      "inputs": [
        {
          "internalType": "uint256",
          "name": "tokenId",
          "type": "uint256"
        }
      ],
      "name": "tokenURI",
      "outputs": [
        {
          "internalType": "string",
          "name": "",
          "type": "string"
        }
      ],
      "stateMutability": "view",
      "type": "function"
    },
    {
      "inputs": [
        {
          "internalType": "address",
          "name": "from",
          "type": "address"
        },
        {
          "internalType": "address",
          "name": "to",
          "type": "address"
        },
        {
          "internalType": "uint256",
          "name": "tokenId",
          "type": "uint256"
        }
      ],
      "name": "transferFrom",
      "outputs": [],
      "stateMutability": "nonpayable",
      "type": "function"
    }
  ],
  "bytecode": "0x60803462000317576001600160401b03906040908082018381118282101762000301578252600981526020906810995d151a58dad95d60ba1b828201528251938385018581108282111762000301578452600785526610951250d2d15560ca1b83860152815181811162000301576000938454916001948584811c94168015620002f6575b83851014620002e2578190601f948581116200028f575b5083908583116001146200022b5788926200021f575b5050600019600383901b1c191690851b1785555b86519283116200020b5783548481811c9116801562000200575b82821014620001ec57828111620001a4575b50809183116001146200013d57508394958293949262000131575b5050600019600383901b1c191690821b1790555b6006555161139a90816200031d8239f35b0151905038806200010c565b90601f198316968486528286209286905b8982106200018c57505083859697981062000172575b505050811b01905562000120565b015160001960f88460031b161c1916905538808062000164565b8087859682949686015181550195019301906200014e565b8486528186208380860160051c820192848710620001e2575b0160051c019085905b828110620001d6575050620000f1565b878155018590620001c6565b92508192620001bd565b634e487b7160e01b86526022600452602486fd5b90607f1690620000df565b634e487b7160e01b85526041600452602485fd5b015190503880620000b1565b8880528489208894509190601f1984168a5b878282106200027857505084116200025e575b505050811b018555620000c5565b015160001960f88460031b161c1916905538808062000250565b8385015186558b979095019493840193016200023d565b9091508780528388208580850160051c820192868610620002d8575b918991869594930160051c01915b828110620002c95750506200009b565b8a8155859450899101620002b9565b92508192620002ab565b634e487b7160e01b87526022600452602487fd5b93607f169362000084565b634e487b7160e01b600052604160045260246000fd5b600080fdfe6080604081815260048036101561001557600080fd5b600092833560e01c90816301ffc9a714610cd45750806306fdde0314610c09578063081812fc14610bce578063095ea7b314610ba7578063115bc93614610b8057806323250f8414610a7557806323b872dd14610a5d57806342842e0e14610a345780635618923614610a155780636352211e146109e457806370a082311461098f57806373ad6c2d1461090657806395d89b41146107ed578063a22cb4651461074c578063abc8c7af14610723578063b88d4fde1461069a578063bd94b00514610569578063c87b56dd14610516578063e870cb661461041f578063e985e9c5146103cd578063fa71308314610379578063fcce48831461034d578063fd4f0b4f146101c65763ff99a0631461012b57600080fd5b346101c25760203660031901126101c25781836003926080956060845161015181610de6565b828152826020820152828682015201523581526008602052209180519061017782610de6565b835493848352600181015460208401908152606060028301549284860193845260018060a01b0396879101541694019384528251958652516020860152519084015251166060820152f35b8280fd5b5090346101c257806003193601126101c2578135906101e3610d9b565b6007549094906001600160a01b03908116330361030057838252600960205260ff8383205416156102c957610217846112ea565b95818116156102b2578461022a9161116a565b90808216908161024b578451637e27328960e01b8152808801879052602490fd5b87969396959495160361027a5750508293508252600960205280822060ff198154169055600a60205281205580f35b92516364283d7b60e01b81526001600160a01b0380871692820192835260208301939093529190921660408301529081906060010390fd5b8351633250574960e11b8152808701849052602490fd5b825162461bcd60e51b81526020818701526011602482015270151a58dad95d081b9bdd081b1a5cdd1959607a1b6044820152606490fd5b825162461bcd60e51b8152602081870152602160248201527f4f6e6c79206d61726b6574706c6163652063616e20657865637574652073616c6044820152606560f81b6064820152608490fd5b50346101c25760203660031901126101c2578160209360ff923581526009855220541690519015158152f35b50346101c25760203660031901126101c2573582526008602090815291819020805460018201546002830154600390930154845192835294820152918201526001600160a01b039091166060820152608090f35b50503461041b578060031936011261041b5760ff816020936103ed610d80565b6103f5610d9b565b6001600160a01b0391821683526005875283832091168252855220549151911615158152f35b5080fd5b5090346101c25760603660031901126101c25761043a610d80565b6006546000198114610503576001016006819055926001600160a01b038281169290919083156104ec5761046f86849261116a565b166104d55750600360209584519061048682610de6565b6024358252878201604435815286808401924284526060850197885289815260088b522092518355516001830155516002820155019151166001600160601b0360a01b82541617905551908152f35b83516339e3563760e11b8152908101869052602490fd5b8451633250574960e11b8152808301889052602490fd5b634e487b7160e01b855260118452602485fd5b5091903461041b57602036600319011261041b5761053761056593356112ea565b5081815161054481610e18565b5280519161055183610e18565b825251918291602083526020830190610d40565b0390f35b5091903461041b57602092836003193601126101c257803561058a816112ea565b6001600160a01b03906105a09082163314611325565b8185526009865260ff84862054161561066a576105bc826112ea565b3315158061065e575b8061063f575b61062957918086600a9593819995167f8c5be1e5ebec7d5bd14f71427d1e84f3dd0314c0f7b2291e5b200ac8c7c3b9258280a48552815282842080546001600160a01b031916905560098152828420805460ff191690555281205580f35b845163a9fbf51f60e01b81523381860152602490fd5b50818116865260058752848620338752875260ff8587205416156105cb565b503382821614156105c5565b835162461bcd60e51b8152808401879052600a602482015269139bdd081b1a5cdd195960b21b6044820152606490fd5b5090346101c25760803660031901126101c2576106b5610d80565b6106bd610d9b565b846064359467ffffffffffffffff861161041b573660238701121561041b57850135946106f56106ec87610e56565b95519586610e34565b858552366024878301011161041b57856107209660246020930183880137850101526044359161101b565b80f35b50503461041b578160031936011261041b5760075490516001600160a01b039091168152602090f35b5090346101c257806003193601126101c257610766610d80565b90602435918215158093036107e9576001600160a01b03169283156107d45750338452600560205280842083855260205280842060ff1981541660ff8416179055519081527f17307eab39ab6107e8899845ad3d59bd9653f200f220920489ca2b5937696c3160203392a380f35b836024925191630b61174360e31b8352820152fd5b8480fd5b5091346109035780600319360112610903578151918160019283549384811c918186169586156108f9575b60209687851081146108e6578899509688969785829a5291826000146108bf575050600114610864575b5050506105659291610855910385610e34565b51928284938452830190610d40565b91908693508083527fb10e2d527612073b26eecdfd717e6a320cf44b4afac2b0732d9fcbe2b7fa0cf65b8284106108a75750505082010181610855610565610842565b8054848a01860152889550879490930192810161088e565b60ff19168782015293151560051b8601909301935084925061085591506105659050610842565b634e487b7160e01b835260228a52602483fd5b92607f1692610818565b80fd5b5090346101c25760203660031901126101c257610921610d80565b600754926001600160a01b039283851661094c57505016906001600160601b0360a01b161760075580f35b906020606492519162461bcd60e51b8352820152601760248201527f4d61726b6574706c61636520616c7265616479207365740000000000000000006044820152fd5b509134610903576020366003190112610903576001600160a01b036109b2610d80565b169283156109cf5750806020938392526003845220549051908152f35b91516322718ad960e21b815291820152602490fd5b5091346109035760203660031901126109035750610a04602092356112ea565b90516001600160a01b039091168152f35b50503461041b578160031936011261041b576020906006549051908152f35b50503461041b5761072090610a4836610db1565b91925192610a5584610e18565b85845261101b565b833461090357610720610a6f36610db1565b91610e72565b50346101c25760603660031901126101c2578035906001600160a01b0360443581811690819003610b7c57610ab59082610aae866112ea565b1614611325565b828552600960205260ff8486205416610b48576007541690813303610b055750610ae190823391611226565b82526009602052808220600160ff19825416179055600a6020526024359082205580f35b606490602085519162461bcd60e51b8352820152601e60248201527f4f6e6c79206d61726b6574706c6163652063616e2063616c6c207468697300006044820152fd5b835162461bcd60e51b8152602081840152600e60248201526d105b1c9958591e481b1a5cdd195960921b6044820152606490fd5b8580fd5b50346101c25760203660031901126101c2576020928291358152600a845220549051908152f35b50503461041b5736600319011261090357610720610bc3610d80565b339060243590611226565b50346101c25760203660031901126101c257918260209335610bef816112ea565b50825283528190205490516001600160a01b039091168152f35b50913461090357806003193601126109035781519181825492600184811c91818616958615610cca575b60209687851081146108e6578899509688969785829a5291826000146108bf575050600114610c6f575050506105659291610855910385610e34565b91908693508280527f290decd9548b62a8d60345a988386fc84ba6bc95484008f6362f93160ef3e5635b828410610cb25750505082010181610855610565610842565b8054848a018601528895508794909301928101610c99565b92607f1692610c33565b925050346101c25760203660031901126101c2573563ffffffff60e01b81168091036101c257602092506380ac58cd60e01b8114908115610d2f575b8115610d1e575b5015158152f35b6301ffc9a760e01b14905038610d17565b635b5e139f60e01b81149150610d10565b919082519283825260005b848110610d6c575050826000602080949584010152601f8019910116010190565b602081830181015184830182015201610d4b565b600435906001600160a01b0382168203610d9657565b600080fd5b602435906001600160a01b0382168203610d9657565b6060906003190112610d96576001600160a01b03906004358281168103610d9657916024359081168103610d96579060443590565b6080810190811067ffffffffffffffff821117610e0257604052565b634e487b7160e01b600052604160045260246000fd5b6020810190811067ffffffffffffffff821117610e0257604052565b90601f8019910116810190811067ffffffffffffffff821117610e0257604052565b67ffffffffffffffff8111610e0257601f01601f191660200190565b906001600160a01b03908116801561100257600091848352846020926002845260409383858720541695869133151580610f6c575b509060027fddf252ad1be2c89b69c2b068fc378daa952ba7f163c4a11628f55a4df523b3ef9284610f39575b85835260038152888320805460010190558683525286812080546001600160a01b0319168517905580a483168203610f0b5750505050565b516364283d7b60e01b81526001600160a01b0392831660048201526024810193909352166044820152606490fd5b600087815260046020526040902080546001600160a01b0319169055848352600381528883208054600019019055610ed3565b91939450915080610fc1575b15610f8857879291869138610ea7565b848887610fa5576024915190637e27328960e01b82526004820152fd5b604491519063177e802f60e01b82523360048301526024820152fd5b503386148015610fe6575b80610f785750878252600481523384868420541614610f78565b5085825260058152848220338352815260ff8583205416610fcc565b604051633250574960e11b815260006004820152602490fd5b611026838383610e72565b813b611033575b50505050565b604051630a85bd0160e11b8082523360048301526001600160a01b03928316602483015260448201949094526080606482015260209592909116939092908390611081906084830190610d40565b039285816000958187895af184918161112a575b506110f5575050503d6000146110ed573d6110af81610e56565b906110bd6040519283610e34565b81528091843d92013e5b805192836110e857604051633250574960e11b815260048101849052602490fd5b019050fd5b5060606110c7565b919450915063ffffffff60e01b160361111257503880808061102d565b60249060405190633250574960e11b82526004820152fd5b9091508681813d8311611163575b6111428183610e34565b810103126107e957516001600160e01b0319811681036107e9579038611095565b503d611138565b6000828152600260205260408120546001600160a01b03908116939284917fddf252ad1be2c89b69c2b068fc378daa952ba7f163c4a11628f55a4df523b3ef91836111f1575b1692836111d9575b84815260026020526040812080546001600160a01b0319168517905580a490565b838152600360205260408120600181540190556111b8565b600086815260046020526040902080546001600160a01b031916905583855260036020526040852080546000190190556111b0565b61122f826112ea565b6001600160a01b03939091908416801515806112de575b806112b7575b61129f575083169282918491167f8c5be1e5ebec7d5bd14f71427d1e84f3dd0314c0f7b2291e5b200ac8c7c3b925600080a460005260046020526040600020906001600160601b0360a01b825416179055565b6024906040519063a9fbf51f60e01b82526004820152fd5b50848316600052600560205260406000208160005260205260ff604060002054161561124c565b50808584161415611246565b6000818152600260205260409020546001600160a01b031690811561130d575090565b60249060405190637e27328960e01b82526004820152fd5b1561132c57565b60405162461bcd60e51b815260206004820152601060248201526f2737ba103a34b1b5b2ba1037bbb732b960811b6044820152606490fdfea26469706673582212204d86f6d512057a9ad39451a53ce6c62b802d95d0497f7c1e7ebde7ac8f82515964736f6c63430008140033",
  "linkReferences": {},
  "deployedLinkReferences": {}
}