{
  "_format": "hh-sol-artifact-1",
  "contractName": "BetToken",
  "sourceName": "contracts/BetToken.sol",
  "abi": [
    {
      "inputs": [],
      "stateMutability": "nonpayable",
      "type": "constructor"
    },
    {
      "inputs": [
        {
          "internalType": "address",
          "name": "spender",
          "type": "address"
        },
        {
          "internalType": "uint256",
          "name": "allowance",
          "type": "uint256"
        },
        {
          "internalType": "uint256",
          "name": "needed",
          "type": "uint256"
        }
      ],
      "name": "ERC20InsufficientAllowance",
      "type": "error"
    },
    {
      "inputs": [
        {
          "internalType": "address",
          "name": "sender",
          "type": "address"
        },
        {
          "internalType": "uint256",
          "name": "balance",
          "type": "uint256"
        },
        {
          "internalType": "uint256",
          "name": "needed",
          "type": "uint256"
        }
      ],
      "name": "ERC20InsufficientBalance",
      "type": "error"
    },
    {
      "inputs": [
        {
          "internalType": "address",
          "name": "approver",
          "type": "address"
        }
      ],
      "name": "ERC20InvalidApprover",
      "type": "error"
    },
    {
      "inputs": [
        {
          "internalType": "address",
          "name": "receiver",
          "type": "address"
        }
      ],
      "name": "ERC20InvalidReceiver",
      "type": "error"
    },
    {
      "inputs": [
        {
          "internalType": "address",
          "name": "sender",
          "type": "address"
        }
      ],
      "name": "ERC20InvalidSender",
      "type": "error"
    },
    {
      "inputs": [
        {
          "internalType": "address",
          "name": "spender",
          "type": "address"
        }
      ],
      "name": "ERC20InvalidSpender",
      "type": "error"
    },
    {
      "anonymous": false,
      "inputs": [
        {
          "indexed": true,
          "internalType": "address",
          "name": "owner",
          "type": "address"
        },
        {
          "indexed": true,
          "internalType": "address",
          "name": "spender",
          "type": "address"
        },
        {
          "indexed": false,
          "internalType": "uint256",
          "name": "value",
          "type": "uint256"
        }
      ],
      "name": "Approval",
      "type": "event"
    },
    {
      "anonymous": false,
      "inputs": [],
      "name": "InitialDistributionDisabled",
      "type": "event"
    },
    {
      "anonymous": false,
      "inputs": [
        {
          "indexed": true,
          "internalType": "address",
          "name": "user",
          "type": "address"
        },
        {
          "indexed": false,
          "internalType": "uint256",
          "name": "amount",
          "type": "uint256"
        }
      ],
      "name": "InitialTokensClaimed",
      "type": "event"
    },
    {
      "anonymous": false,
      "inputs": [
        {
          "indexed": true,
          "internalType": "address",
          "name": "from",
          "type": "address"
        },
        {
          "indexed": true,
          "internalType": "address",
          "name": "to",
          "type": "address"
        },
        {
          "indexed": false,
          "internalType": "uint256",
          "name": "amount",
          "type": "uint256"
        }
      ],
      "name": "TokensGranted",
      "type": "event"
    },
    {
      "anonymous": false,
      "inputs": [
        {
          "indexed": true,
          "internalType": "address",
          "name": "from",
          "type": "address"
        },
        {
          "indexed": true,
          "internalType": "address",
          "name": "to",
          "type": "address"
        },
        {
          "indexed": false,
          "internalType": "uint256",
          "name": "value",
          "type": "uint256"
        }
      ],
      "name": "Transfer",
      "type": "event"
    },
    {
      "inputs": [],
      "name": "ADMIN_INITIAL_TOKENS",
      "outputs": [
        {
          "internalType": "uint256",
          "name": "",
          "type": "uint256"
        }
      ],
      "stateMutability": "view",
      "type": "function"
    },
    {
      "inputs": [],
      "name": "INITIAL_USER_TOKENS",
      "outputs": [
        {
          "internalType": "uint256",
          "name": "",
          "type": "uint256"
        }
      ],
      "stateMutability": "view",
      "type": "function"
    },
    {
      "inputs": [
        {
          "internalType": "address",
          "name": "owner",
          "type": "address"
        },
        {
          "internalType": "address",
          "name": "spender",
          "type": "address"
        }
      ],
      "name": "allowance",
      "outputs": [
        {
          "internalType": "uint256",
          "name": "",
          "type": "uint256"
        }
      ],
      "stateMutability": "view",
      "type": "function"
    },
    {
      "inputs": [
        {
          "internalType": "address",
          "name": "spender",
          "type": "address"
        },
        {
          "internalType": "uint256",
          "name": "value",
          "type": "uint256"
        }
      ],
      "name": "approve",
      "outputs": [
        {
          "internalType": "bool",
          "name": "",
          "type": "bool"
        }
      ],
      "stateMutability": "nonpayable",
      "type": "function"
    },
    {
      "inputs": [
        {
          "internalType": "address",
          "name": "account",
          "type": "address"
        }
      ],
      "name": "balanceOf",
      "outputs": [
        {
          "internalType": "uint256",
          "name": "",
          "type": "uint256"
        }
      ],
      "stateMutability": "view",
      "type": "function"
    },
    {
      "inputs": [],
      "name": "claimInitialTokens",
      "outputs": [],
      "stateMutability": "nonpayable",
      "type": "function"
    },
    {
      "inputs": [],
      "name": "decimals",
      "outputs": [
        {
          "internalType": "uint8",
          "name": "",
          "type": "uint8"
        }
      ],
      "stateMutability": "view",
      "type": "function"
    },
    {
      "inputs": [],
      "name": "disableInitialDistribution",
      "outputs": [],
      "stateMutability": "nonpayable",
      "type": "function"
    },
    {
      "inputs": [
        {
          "internalType": "address",
          "name": "to",
          "type": "address"
        },
        {
          "internalType": "uint256",
          "name": "amount",
          "type": "uint256"
        }
      ],
      "name": "grantTokens",
      "outputs": [],
      "stateMutability": "nonpayable",
      "type": "function"
    },
    {
      "inputs": [
        {
          "internalType": "address",
          "name": "",
          "type": "address"
        }
      ],
      "name": "hasClaimedInitialTokens",
      "outputs": [
        {
          "internalType": "bool",
          "name": "",
          "type": "bool"
        }
      ],
      "stateMutability": "view",
      "type": "function"
    },
    {
      "inputs": [],
      "name": "initialDistributionEnabled",
      "outputs": [
        {
          "internalType": "bool",
          "name": "",
          "type": "bool"
        }
      ],
      "stateMutability": "view",
      "type": "function"
    },
    {
      "inputs": [],
      "name": "name",
      "outputs": [
        {
          "internalType": "string",
          "name": "",
          "type": "string"
        }
      ],
      "stateMutability": "view",
      "type": "function"
    },
    {
      "inputs": [],
      "name": "owner",
      "outputs": [
        {
          "internalType": "address",
          "name": "",
          "type": "address"
        }
      ],
      "stateMutability": "view",
      "type": "function"
    },
    {
      "inputs": [],
      "name": "symbol",
      "outputs": [
        {
          "internalType": "string",
          "name": "",
          "type": "string"
        }
      ],
      "stateMutability": "view",
      "type": "function"
    },
    {
      "inputs": [],
      "name": "totalSupply",
      "outputs": [
        {
          "internalType": "uint256",
          "name": "",
          "type": "uint256"
        }
      ],
      "stateMutability": "view",
      "type": "function"
    },
    {
      "inputs": [
        {
          "internalType": "address",
          "name": "to",
          "type": "address"
        },
        {
          "internalType": "uint256",
          "name": "value",
          "type": "uint256"
        }
      ],
      "name": "transfer",
      "outputs": [
        {
          "internalType": "bool",
          "name": "",
          "type": "bool"
        }
      ],
      "stateMutability": "nonpayable",
      "type": "function"
    },
    {
      "inputs": [
        {
          "internalType": "address",
          "name": "from",
          "type": "address"
        },
        {
          "internalType": "address",
          "name": "to",
          "type": "address"
        },
        {
          "internalType": "uint256",
          "name": "value",
          "type": "uint256"
        }
      ],
      "name": "transferFrom",
      "outputs": [
        {
          "internalType": "bool",
          "name": "",
          "type": "bool"
        }
      ],
      "stateMutability": "nonpayable",
      "type": "function"
    }
  ],
  "bytecode": "0x608034620003b3576001600160401b039060409080820183811182821017620002b3578252600881526020672132ba2a37b5b2b760c11b8183015282519183830183811086821117620002b35784526003948584526210915560ea1b83850152815195818711620002b3578054966001938489811c99168015620003a8575b868a101462000392578190601f998a81116200033c575b5086908a8311600114620002d557600092620002c9575b505060001982841b1c191690841b1781555b8451918211620002b35760049485548481811c91168015620002a8575b86821014620002935788811162000248575b5084978311600114620001df5796829394959697600093620001d3575b505082841b92600019911b1c19161783555b60ff1960075416176007553360018060a01b031960055416176005553315620001bc5760025469d3c21bcecceda100000092838201809211620001a757506000917fddf252ad1be2c89b69c2b068fc378daa952ba7f163c4a11628f55a4df523b3ef9160025533835282815284832084815401905584519384523393a351610a929081620003b98239f35b601190634e487b7160e01b6000525260246000fd5b506000602492519163ec442f0560e01b8352820152fd5b0151915038806200010a565b90601f1983169786600052856000209260005b8a811062000232575084869798999a1062000217575b50505050811b0183556200011c565b01519060f884600019921b161c191690553880808062000208565b81830151855593860193918701918701620001f2565b86600052856000208980860160051c82019288871062000289575b0160051c019085905b8281106200027c575050620000ed565b600081550185906200026c565b9250819262000263565b602287634e487b7160e01b6000525260246000fd5b90607f1690620000db565b634e487b7160e01b600052604160045260246000fd5b015190503880620000ac565b90869350601f1983169185600052886000209260005b8a8282106200032557505084116200030c575b505050811b018155620000be565b015160001983861b60f8161c19169055388080620002fe565b8385015186558a97909501949384019301620002eb565b90915083600052866000208a80850160051c82019289861062000388575b918891869594930160051c01915b8281106200037857505062000095565b6000815585945088910162000368565b925081926200035a565b634e487b7160e01b600052602260045260246000fd5b98607f16986200007e565b600080fdfe608060408181526004918236101561001657600080fd5b600092833560e01c91826306fdde03146107f457508163095ea7b31461074a57816318160ddd1461072b57816323b872dd1461063757816323fdf0d9146105f9578163313ce567146105dd5781634e70d1a91461045f578163606d569a1461043b5781636a84c3f11461041757816370a08231146103e0578163871d09ea146103865781638da5cb5b1461035d57816395d89b411461023e578163a9059cbb1461020d578163c94e643c1461014f57508063dd62ed3e146101075763f30ff8f4146100e057600080fd5b346101035781600319360112610103576020905169d3c21bcecceda10000008152f35b5080fd5b503461010357806003193601126101035780602092610124610915565b61012c610930565b6001600160a01b0391821683526001865283832091168252845220549051908152f35b905034610209578160031936011261020957610169610915565b6024359260018060a01b039261018484600554163314610a24565b338652856020528482872054106101d057506101a1848333610946565b5192835216907f4b1544c19293e59b936b0280f49423a62bdf27ffa57af6fdabe8e7a4a454d80e60203392a380f35b6020606492519162461bcd60e51b83528201526014602482015273496e73756666696369656e742062616c616e636560601b6044820152fd5b8280fd5b50503461010357806003193601126101035760209061023761022d610915565b6024359033610946565b5160018152f35b838334610103578160031936011261010357805190828454600181811c90808316928315610353575b60209384841081146103405783885290811561032457506001146102cf575b505050829003601f01601f191682019267ffffffffffffffff8411838510176102bc57508291826102b89252826108cc565b0390f35b634e487b7160e01b815260418552602490fd5b8787529192508591837f8a35acfbc15ff81a39ae7d344fd709f28e8600b4aa8c65c6b64bfe7fe36bd19b5b8385106103105750505050830101858080610286565b8054888601830152930192849082016102fa565b60ff1916878501525050151560051b8401019050858080610286565b634e487b7160e01b895260228a52602489fd5b91607f1691610267565b50503461010357816003193601126101035760055490516001600160a01b039091168152602090f35b83346103dd57806003193601126103dd576103ac60018060a01b03600554163314610a24565b60ff19600754166007557fcdbb46bfc2838dfa31cc9570ad2950bc8f60864faa8bb5ad99ae712e3c8f0c768180a180f35b80fd5b5050346101035760203660031901126101035760209181906001600160a01b03610408610915565b16815280845220549051908152f35b50503461010357816003193601126101035760209051681b1ae4d6e2ef5000008152f35b50503461010357816003193601126101035760209060ff6007541690519015158152f35b83833461010357816003193601126101035760ff600754161561059b5733825260206006815260ff8284205416610559573380845260068252828420805460ff19166001179055156105425760025491681b1ae4d6e2ef5000009283810180911161052f57907fa2b4124a22f1314acb7d63250764598664c94aebe1296b7dd24d9099c00fe89a92916002553385528482528085208481540190558051848152857fddf252ad1be2c89b69c2b068fc378daa952ba7f163c4a11628f55a4df523b3ef843393a3519283523392a280f35b634e487b7160e01b855260118652602485fd5b815163ec442f0560e01b8152808501849052602490fd5b8390606492519162461bcd60e51b8352820152601e60248201527f416c726561647920636c61696d656420696e697469616c20746f6b656e7300006044820152fd5b5162461bcd60e51b8152602081840152601a60248201527f496e697469616c20646973747269627574696f6e20656e6465640000000000006044820152606490fd5b5050346101035781600319360112610103576020905160128152f35b5050346101035760203660031901126101035760209160ff9082906001600160a01b03610624610915565b1681526006855220541690519015158152f35b905082346103dd5760603660031901126103dd57610653610915565b61065b610930565b916044359360018060a01b038316808352600160205286832033845260205286832054916000198303610697575b602088610237898989610946565b8683106106ff5781156106e85733156106d15750825260016020908152868320338452815291869020908590039055829061023787610689565b8751634a1406b160e11b8152908101849052602490fd5b875163e602df0560e01b8152908101849052602490fd5b8751637dc7a0d960e11b8152339181019182526020820193909352604081018790528291506060010390fd5b5050346101035781600319360112610103576020906002549051908152f35b905034610209578160031936011261020957610764610915565b6024359033156107dd576001600160a01b03169182156107c657508083602095338152600187528181208582528752205582519081527f8c5be1e5ebec7d5bd14f71427d1e84f3dd0314c0f7b2291e5b200ac8c7c3b925843392a35160018152f35b8351634a1406b160e11b8152908101859052602490fd5b835163e602df0560e01b8152808401869052602490fd5b8490843461020957826003193601126102095782600354600181811c908083169283156108c2575b602093848410811461034057838852908115610324575060011461086c57505050829003601f01601f191682019267ffffffffffffffff8411838510176102bc57508291826102b89252826108cc565b600387529192508591837fc2575a0e9e593c00f959f8c92f12db2869c3395a3b0502d05e2516446f71f85b5b8385106108ae5750505050830101858080610286565b805488860183015293019284908201610898565b91607f169161081c565b6020808252825181830181905290939260005b82811061090157505060409293506000838284010152601f8019910116010190565b8181018601518482016040015285016108df565b600435906001600160a01b038216820361092b57565b600080fd5b602435906001600160a01b038216820361092b57565b916001600160a01b03808416928315610a0b57169283156109f257600090838252816020526040822054908382106109c0575091604082827fddf252ad1be2c89b69c2b068fc378daa952ba7f163c4a11628f55a4df523b3ef958760209652828652038282205586815220818154019055604051908152a3565b60405163391434e360e21b81526001600160a01b03919091166004820152602481019190915260448101839052606490fd5b60405163ec442f0560e01b815260006004820152602490fd5b604051634b637e8f60e11b815260006004820152602490fd5b15610a2b57565b60405162461bcd60e51b81526020600482015260096024820152682737ba1037bbb732b960b91b6044820152606490fdfea264697066735822122005377e12c596fadd0675362cbcaa5d1bd21549d8ee1ed799ed27097c8727386564736f6c63430008140033",
  "linkReferences": {},
  "deployedLinkReferences": {}
}