{
  "_format": "hh-sol-artifact-1",
  "contractName": "EasyBet",
  "sourceName": "contracts/EasyBet.sol",
  "abi": [
    {
      "inputs": [
        {
          "internalType": "address",
          "name": "betTokenAddress",
          "type": "address"
        },
        {
          "internalType": "address",
          "name": "betNFTAddress",
          "type": "address"
        }
      ],
      "stateMutability": "nonpayable",
      "type": "constructor"
    },
    {
      "anonymous": false,
      "inputs": [
        {
          "indexed": false,
          "internalType": "uint256",
          "name": "projectId",
          "type": "uint256"
        },
        {
          "indexed": false,
          "internalType": "uint256",
          "name": "tokenId",
          "type": "uint256"
        },
        {
          "indexed": false,
          "internalType": "uint256",
          "name": "amount",
          "type": "uint256"
        }
      ],
      "name": "PrizeClaimed",
      "type": "event"
    },
    {
      "anonymous": false,
      "inputs": [
        {
          "indexed": false,
          "internalType": "uint256",
          "name": "projectId",
          "type": "uint256"
        },
        {
          "indexed": false,
          "internalType": "uint256",
          "name": "totalWinners",
          "type": "uint256"
        },
        {
          "indexed": false,
          "internalType": "uint256",
          "name": "prizePerTicket",
          "type": "uint256"
        }
      ],
      "name": "PrizesDistributed",
      "type": "event"
    },
    {
      "anonymous": false,
      "inputs": [
        {
          "indexed": false,
          "internalType": "uint256",
          "name": "projectId",
          "type": "uint256"
        }
      ],
      "name": "ProjectActivated",
      "type": "event"
    },
    {
      "anonymous": false,
      "inputs": [
        {
          "indexed": false,
          "internalType": "uint256",
          "name": "projectId",
          "type": "uint256"
        },
        {
          "indexed": false,
          "internalType": "string",
          "name": "name",
          "type": "string"
        },
        {
          "indexed": false,
          "internalType": "string",
          "name": "teamA",
          "type": "string"
        },
        {
          "indexed": false,
          "internalType": "string",
          "name": "teamB",
          "type": "string"
        },
        {
          "indexed": false,
          "internalType": "uint256",
          "name": "ticketPrice",
          "type": "uint256"
        },
        {
          "indexed": false,
          "internalType": "uint256",
          "name": "resultTime",
          "type": "uint256"
        }
      ],
      "name": "ProjectCreated",
      "type": "event"
    },
    {
      "anonymous": false,
      "inputs": [
        {
          "indexed": false,
          "internalType": "uint256",
          "name": "projectId",
          "type": "uint256"
        }
      ],
      "name": "ProjectDeactivated",
      "type": "event"
    },
    {
      "anonymous": false,
      "inputs": [
        {
          "indexed": false,
          "internalType": "uint256",
          "name": "projectId",
          "type": "uint256"
        },
        {
          "indexed": false,
          "internalType": "uint256",
          "name": "winningOption",
          "type": "uint256"
        }
      ],
      "name": "ResultAnnounced",
      "type": "event"
    },
    {
      "anonymous": false,
      "inputs": [
        {
          "indexed": false,
          "internalType": "uint256",
          "name": "projectId",
          "type": "uint256"
        },
        {
          "indexed": false,
          "internalType": "uint256",
          "name": "tokenId",
          "type": "uint256"
        },
        {
          "indexed": false,
          "internalType": "address",
          "name": "seller",
          "type": "address"
        }
      ],
      "name": "TicketCancelled",
      "type": "event"
    },
    {
      "anonymous": false,
      "inputs": [
        {
          "indexed": false,
          "internalType": "uint256",
          "name": "projectId",
          "type": "uint256"
        },
        {
          "indexed": false,
          "internalType": "uint256",
          "name": "tokenId",
          "type": "uint256"
        },
        {
          "indexed": false,
          "internalType": "uint256",
          "name": "price",
          "type": "uint256"
        }
      ],
      "name": "TicketListed",
      "type": "event"
    },
    {
      "anonymous": false,
      "inputs": [
        {
          "indexed": false,
          "internalType": "uint256",
          "name": "projectId",
          "type": "uint256"
        },
        {
          "indexed": false,
          "internalType": "uint256",
          "name": "tokenId",
          "type": "uint256"
        },
        {
          "indexed": false,
          "internalType": "address",
          "name": "buyer",
          "type": "address"
        },
        {
          "indexed": false,
          "internalType": "uint256",
          "name": "choice",
          "type": "uint256"
        }
      ],
      "name": "TicketPurchased",
      "type": "event"
    },
    {
      "anonymous": false,
      "inputs": [
        {
          "indexed": false,
          "internalType": "uint256",
          "name": "projectId",
          "type": "uint256"
        },
        {
          "indexed": false,
          "internalType": "uint256",
          "name": "tokenId",
          "type": "uint256"
        },
        {
          "indexed": false,
          "internalType": "address",
          "name": "seller",
          "type": "address"
        },
        {
          "indexed": false,
          "internalType": "address",
          "name": "buyer",
          "type": "address"
        },
        {
          "indexed": false,
          "internalType": "uint256",
          "name": "price",
          "type": "uint256"
        }
      ],
      "name": "TicketSold",
      "type": "event"
    },
    {
      "inputs": [
        {
          "internalType": "uint256",
          "name": "projectId",
          "type": "uint256"
        }
      ],
      "name": "activateProject",
      "outputs": [],
      "stateMutability": "nonpayable",
      "type": "function"
    },
    {
      "inputs": [
        {
          "internalType": "uint256",
          "name": "projectId",
          "type": "uint256"
        },
        {
          "internalType": "uint256",
          "name": "winningOption",
          "type": "uint256"
        }
      ],
      "name": "announceResult",
      "outputs": [],
      "stateMutability": "nonpayable",
      "type": "function"
    },
    {
      "inputs": [],
      "name": "betNFT",
      "outputs": [
        {
          "internalType": "contract BetNFT",
          "name": "",
          "type": "address"
        }
      ],
      "stateMutability": "view",
      "type": "function"
    },
    {
      "inputs": [],
      "name": "betToken",
      "outputs": [
        {
          "internalType": "contract BetToken",
          "name": "",
          "type": "address"
        }
      ],
      "stateMutability": "view",
      "type": "function"
    },
    {
      "inputs": [
        {
          "internalType": "uint256",
          "name": "projectId",
          "type": "uint256"
        },
        {
          "internalType": "uint256",
          "name": "tokenId",
          "type": "uint256"
        }
      ],
      "name": "buyFromOrderBook",
      "outputs": [],
      "stateMutability": "nonpayable",
      "type": "function"
    },
    {
      "inputs": [
        {
          "internalType": "uint256",
          "name": "tokenId",
          "type": "uint256"
        }
      ],
      "name": "cancelListing",
      "outputs": [],
      "stateMutability": "nonpayable",
      "type": "function"
    },
    {
      "inputs": [
        {
          "internalType": "uint256",
          "name": "projectId",
          "type": "uint256"
        },
        {
          "internalType": "uint256",
          "name": "tokenId",
          "type": "uint256"
        }
      ],
      "name": "claimPrize",
      "outputs": [],
      "stateMutability": "nonpayable",
      "type": "function"
    },
    {
      "inputs": [
        {
          "internalType": "string",
          "name": "name",
          "type": "string"
        },
        {
          "internalType": "string",
          "name": "teamA",
          "type": "string"
        },
        {
          "internalType": "string",
          "name": "teamB",
          "type": "string"
        },
        {
          "internalType": "string[]",
          "name": "options",
          "type": "string[]"
        },
        {
          "internalType": "uint256",
          "name": "ticketPrice",
          "type": "uint256"
        },
        {
          "internalType": "uint256",
          "name": "resultTime",
          "type": "uint256"
        }
      ],
      "name": "createProject",
      "outputs": [],
      "stateMutability": "nonpayable",
      "type": "function"
    },
    {
      "inputs": [
        {
          "internalType": "uint256",
          "name": "projectId",
          "type": "uint256"
        }
      ],
      "name": "deactivateProject",
      "outputs": [],
      "stateMutability": "nonpayable",
      "type": "function"
    },
    {
      "inputs": [
        {
          "internalType": "uint256",
          "name": "projectId",
          "type": "uint256"
        }
      ],
      "name": "distributeAllPrizes",
      "outputs": [],
      "stateMutability": "nonpayable",
      "type": "function"
    },
    {
      "inputs": [],
      "name": "getActiveProjects",
      "outputs": [
        {
          "internalType": "uint256[]",
          "name": "",
          "type": "uint256[]"
        }
      ],
      "stateMutability": "view",
      "type": "function"
    },
    {
      "inputs": [],
      "name": "getAllProjects",
      "outputs": [
        {
          "internalType": "uint256[]",
          "name": "",
          "type": "uint256[]"
        }
      ],
      "stateMutability": "view",
      "type": "function"
    },
    {
      "inputs": [
        {
          "internalType": "uint256",
          "name": "projectId",
          "type": "uint256"
        }
      ],
      "name": "getOrderBook",
      "outputs": [
        {
          "internalType": "uint256[]",
          "name": "",
          "type": "uint256[]"
        },
        {
          "internalType": "uint256[]",
          "name": "",
          "type": "uint256[]"
        }
      ],
      "stateMutability": "view",
      "type": "function"
    },
    {
      "inputs": [],
      "name": "getProjectCount",
      "outputs": [
        {
          "internalType": "uint256",
          "name": "",
          "type": "uint256"
        }
      ],
      "stateMutability": "view",
      "type": "function"
    },
    {
      "inputs": [
        {
          "internalType": "uint256",
          "name": "projectId",
          "type": "uint256"
        }
      ],
      "name": "getProjectInfo",
      "outputs": [
        {
          "internalType": "string",
          "name": "name",
          "type": "string"
        },
        {
          "internalType": "string",
          "name": "teamA",
          "type": "string"
        },
        {
          "internalType": "string",
          "name": "teamB",
          "type": "string"
        },
        {
          "internalType": "string[]",
          "name": "options",
          "type": "string[]"
        },
        {
          "internalType": "uint256",
          "name": "ticketPrice",
          "type": "uint256"
        },
        {
          "internalType": "uint256",
          "name": "resultTime",
          "type": "uint256"
        },
        {
          "internalType": "uint256",
          "name": "totalPool",
          "type": "uint256"
        },
        {
          "internalType": "bool",
          "name": "isFinished",
          "type": "bool"
        },
        {
          "internalType": "bool",
          "name": "isActive",
          "type": "bool"
        },
        {
          "internalType": "uint256",
          "name": "winningOption",
          "type": "uint256"
        },
        {
          "internalType": "uint256",
          "name": "ticketCount",
          "type": "uint256"
        },
        {
          "internalType": "bool",
          "name": "prizesDistributed",
          "type": "bool"
        }
      ],
      "stateMutability": "view",
      "type": "function"
    },
    {
      "inputs": [
        {
          "internalType": "uint256",
          "name": "projectId",
          "type": "uint256"
        },
        {
          "internalType": "uint256",
          "name": "tokenId",
          "type": "uint256"
        }
      ],
      "name": "getTicketChoice",
      "outputs": [
        {
          "internalType": "uint256",
          "name": "",
          "type": "uint256"
        }
      ],
      "stateMutability": "view",
      "type": "function"
    },
    {
      "inputs": [
        {
          "internalType": "uint256",
          "name": "tokenId",
          "type": "uint256"
        }
      ],
      "name": "getTicketDetails",
      "outputs": [
        {
          "internalType": "uint256",
          "name": "projectId",
          "type": "uint256"
        },
        {
          "internalType": "string",
          "name": "projectName",
          "type": "string"
        },
        {
          "internalType": "string",
          "name": "teamA",
          "type": "string"
        },
        {
          "internalType": "string",
          "name": "teamB",
          "type": "string"
        },
        {
          "internalType": "uint256",
          "name": "buyPrice",
          "type": "uint256"
        },
        {
          "internalType": "uint256",
          "name": "buyTime",
          "type": "uint256"
        },
        {
          "internalType": "bool",
          "name": "isListed",
          "type": "bool"
        },
        {
          "internalType": "uint256",
          "name": "listingPrice",
          "type": "uint256"
        },
        {
          "internalType": "bool",
          "name": "isWinner",
          "type": "bool"
        },
        {
          "internalType": "uint256",
          "name": "userChoice",
          "type": "uint256"
        },
        {
          "internalType": "uint256",
          "name": "winningOption",
          "type": "uint256"
        },
        {
          "internalType": "string",
          "name": "userChoiceText",
          "type": "string"
        },
        {
          "internalType": "string",
          "name": "winningText",
          "type": "string"
        }
      ],
      "stateMutability": "view",
      "type": "function"
    },
    {
      "inputs": [
        {
          "internalType": "address",
          "name": "user",
          "type": "address"
        }
      ],
      "name": "getUserBalance",
      "outputs": [
        {
          "internalType": "uint256",
          "name": "",
          "type": "uint256"
        }
      ],
      "stateMutability": "view",
      "type": "function"
    },
    {
      "inputs": [
        {
          "internalType": "address",
          "name": "user",
          "type": "address"
        }
      ],
      "name": "getUserTickets",
      "outputs": [
        {
          "internalType": "uint256[]",
          "name": "",
          "type": "uint256[]"
        }
      ],
      "stateMutability": "view",
      "type": "function"
    },
    {
      "inputs": [
        {
          "internalType": "uint256",
          "name": "tokenId",
          "type": "uint256"
        },
        {
          "internalType": "uint256",
          "name": "price",
          "type": "uint256"
        }
      ],
      "name": "listTicket",
      "outputs": [],
      "stateMutability": "nonpayable",
      "type": "function"
    },
    {
      "inputs": [],
      "name": "oracle",
      "outputs": [
        {
          "internalType": "address",
          "name": "",
          "type": "address"
        }
      ],
      "stateMutability": "view",
      "type": "function"
    },
    {
      "inputs": [
        {
          "internalType": "uint256",
          "name": "",
          "type": "uint256"
        },
        {
          "internalType": "uint256",
          "name": "",
          "type": "uint256"
        }
      ],
      "name": "orderBookPrices",
      "outputs": [
        {
          "internalType": "uint256",
          "name": "",
          "type": "uint256"
        }
      ],
      "stateMutability": "view",
      "type": "function"
    },
    {
      "inputs": [
        {
          "internalType": "uint256",
          "name": "",
          "type": "uint256"
        },
        {
          "internalType": "uint256",
          "name": "",
          "type": "uint256"
        }
      ],
      "name": "orderBookTokens",
      "outputs": [
        {
          "internalType": "uint256",
          "name": "",
          "type": "uint256"
        }
      ],
      "stateMutability": "view",
      "type": "function"
    },
    {
      "inputs": [
        {
          "internalType": "uint256",
          "name": "",
          "type": "uint256"
        },
        {
          "internalType": "uint256",
          "name": "",
          "type": "uint256"
        }
      ],
      "name": "prizeClaimed",
      "outputs": [
        {
          "internalType": "bool",
          "name": "",
          "type": "bool"
        }
      ],
      "stateMutability": "view",
      "type": "function"
    },
    {
      "inputs": [
        {
          "internalType": "uint256",
          "name": "projectId",
          "type": "uint256"
        },
        {
          "internalType": "uint256",
          "name": "choice",
          "type": "uint256"
        }
      ],
      "name": "purchaseTicket",
      "outputs": [],
      "stateMutability": "nonpayable",
      "type": "function"
    },
    {
      "inputs": [
        {
          "internalType": "uint256",
          "name": "",
          "type": "uint256"
        },
        {
          "internalType": "uint256",
          "name": "",
          "type": "uint256"
        }
      ],
      "name": "winningTickets",
      "outputs": [
        {
          "internalType": "bool",
          "name": "",
          "type": "bool"
        }
      ],
      "stateMutability": "view",
      "type": "function"
    }
  ],
  "bytecode": "0x6080346200012757620030c3906000906001600160401b0390601f38859003908101601f1916820190838211838310176200011357808391604097889485528339810103126200010f576200006260206200005a836200012c565b92016200012c565b600380546001600160a01b031990811633179091556001805482166001600160a01b0394851617905560028054909116929091169182179055803b156200010f579082809260248651809581936373ad6c2d60e01b83523060048401525af180156200010557620000e0575b5050805551612f819081620001428239f35b8111620000f15782523880620000ce565b634e487b7160e01b82526041600452602482fd5b84513d85823e3d90fd5b8280fd5b634e487b7160e01b85526041600452602485fd5b600080fd5b51906001600160a01b0382168203620001275756fe610100604052600436101561001357600080fd5b6000803560e01c80630484a22f146124e95780631dd3a7ad146124b757806324c141601461226557806329cfce4114612235578063305a67a814612092578063305a905a14611e585780633674e77e14611e0e5780633bcff3b014611df157806341544a8214611c7c578063436e695814611ba2578063458f70f714611b755780634773489214611adb5780634d7628b9146118225780636920f52b146117f957806374afc209146115e957806378691f16146115c05780637b154140146113555780637dc0d1d01461132c57806380d03829146112bd5780638dc9f6b214610fc2578063a8c1a91c14610f82578063bdbbb0cb14610c9f578063d368f97614610b9b578063d50bc40614610352578063db2c0fd1146103205763fabf59681461013c57600080fd5b3461031d57602060e052602060031936011261031d5760043561016c816000526006602052604060002054151590565b6101759061292c565b815260e05160069052604081206004810191600582015460068301546007840154600885015460ff16600b86015460ff1690600987015492600a88015494600d89015460ff169660019a8b8b016101cb90612d88565b60a0526101da60028c01612d88565b9a6003016101e790612d88565b908c8154916101f583612872565b6040519081608052610206916127fb565b826080515260805160e05101908160c0528d5260e0518d208d915b8483106103005750505050506102699061025b604051809d61024c610180808452830160a051612764565b918083039060e0510152612764565b8c810360408e015290612764565b988a8a0360608c015260805151808b5260e051808c01908260051b8d01019b60c05193905b8382106102d3575050505050899a5060808a015260a089015260c0880152151560e0870152151561010086015261012085015261014084015215156101608301520390f35b909192939c8f906102ee908f601f1985830301875251612764565b60e051909e810195940192019061028e565b83809161030c84612d88565b815260e05101920192019190610221565b80fd5b503461031d5760ff60406020926103363661274e565b9082526008855282822090825284522054166040519015158152f35b503461031d5760c036600319011261031d576004356001600160401b038111610b975761038390369060040161281c565b6024356001600160401b038111610b93576103a290369060040161281c565b906044356001600160401b038111610b8f576103c290369060040161281c565b91606435906001600160401b038211610b8b5736602383011215610b8b5781600401356103ee81612872565b926103fc60405194856127fb565b818452602084019160051b810160240182368211610b875760248301905b828210610b54575050505061043a60018060a01b03600354163314612889565b6002835110610b0f5760843515610aca574260a4351115610a85578151151580610a7b575b15610a365761046e86546128cc565b9283875583875260066020526040872084815585516001600160401b0381116108db5761049e60018301546128db565b601f8111610a03575b506020601f82116001146109995790806001928b9161098e575b50600019600383901b1c191690821b179101555b83875260066020526002604088200183516001600160401b0381116108db576104fe82546128db565b601f811161095e575b50806020601f82116001146108fa578a916108ef575b508160011b916000199060031b1c19161790555b83875260066020526003604088200186516001600160401b0381116108db5761055a82546128db565b601f81116108ab575b50806020601f8211600114610846578a9161083b575b508160011b916000199060031b1c19161790555b838752600660205260046040882001905191600160401b83116108275781548383558084106107b2575b509087526020872087915b83831061068457505050507fc740fe71543a9560ec48410897fd664ab6366220c956edacd8bc7d2a798037469361066061066e92848852600660205260408820608435600582015560a4356006820155886007820155600b600882019160ff19928381541690558a600982015501908154169055610652604051968796875260c0602088015260c0870190612764565b908582036040870152612764565b908382036060850152612764565b608435608083015260a43560a08301520390a180f35b80518051906001600160401b03821161079e576106a184546128db565b601f8111610763575b506020908b601f84116001146106f6579280602093600196938796926106eb575b5050600019600383901b1c191690841b1785555b019201920191906105c2565b0151905038806106cb565b85905260208c2091908c5b601f198516811061074b575083602093600196938796938794601f19811610610732575b505050811b0185556106df565b015160001960f88460031b161c19169055388080610725565b91926020600181928685015181550194019201610701565b61078e90858d5260208d20601f850160051c81019160208610610794575b601f0160051c0190612915565b386106aa565b9091508190610781565b634e487b7160e01b8b52604160045260248bfd5b82895260208920908482015b81830181106107ce5750506105b7565b808b6107dc600193546128db565b806107ea575b5050016107be565b601f81118414610802575050600081555b8b386107e2565b82825261081d601f60208420920160051c8201858301612915565b60008355556107fb565b634e487b7160e01b88526041600452602488fd5b905088015138610579565b9150828a5260208a208a925b8a601f198416851061089457506001935082601f1981161061087b575b5050811b01905561058d565b8a015160001960f88460031b161c19169055388061086f565b810151825560209384019360019092019101610852565b6108d590838b5260208b20601f840160051c8101916020851061079457601f0160051c0190612915565b38610563565b634e487b7160e01b89526041600452602489fd5b90508501513861051d565b9150828a5260208a208a925b601f1983168410610946576001935082601f1981161061092d575b5050811b019055610531565b87015160001960f88460031b161c191690553880610921565b87810151825560209384019360019092019101610906565b61098890838b5260208b20601f840160051c8101916020851061079457601f0160051c0190612915565b38610507565b9050880151386104c1565b600183018a5260208a20908a5b601f19841681106109eb57509160019291839282601f198116106109d2575b5050811b019101556104d5565b8a015160001960f88460031b161c1916905538806109c5565b9091602060018192858d0151815501930191016109a6565b610a3090600184018b5260208b20601f840160051c8101916020851061079457601f0160051c0190612915565b386104a7565b60405162461bcd60e51b815260206004820152601a60248201527f5465616d206e616d65732063616e6e6f7420626520656d7074790000000000006044820152606490fd5b508451151561045f565b60405162461bcd60e51b815260206004820152601d60248201527f526573756c742074696d65206d75737420626520696e206675747572650000006044820152606490fd5b60405162461bcd60e51b815260206004820152601d60248201527f5469636b6574207072696365206d75737420626520706f7369746976650000006044820152606490fd5b60405162461bcd60e51b815260206004820152601b60248201527f4174206c656173742032206f7074696f6e7320726571756972656400000000006044820152606490fd5b81356001600160401b038111610b8357602091610b7883926024369189010161281c565b81520191019061041a565b8a80fd5b8880fd5b8480fd5b8380fd5b8280fd5b5080fd5b503461031d576020908160031936011261031d57600435610bd1610bcc826000526006602052604060002054151590565b61292c565b8082526004835260408220805492610be884612d42565b92815b858110610c5b57505060405193858582815201928252858220915b818110610c4757610c3686610c438988610c22848a03856127fb565b60405194859460408652604086019061271a565b918483039085015261271a565b0390f35b825484529286019260019283019201610c06565b80610c6c610c9792869895986127a4565b905484895260058a52604089209160031b1c885288526040872054610c918288612d74565b526128cc565b949194610beb565b503461031d57610cae3661274e565b90610cc9610bcc826000526006602052604060002054151590565b8083526020916006835260ff600b6040862001541615610f455781845260068352604084206006810154421015610f0957610d0b60ff60088301541615612971565b6004810154821015610ed3576001546005820180546040516323b872dd60e01b815233600482015230602482015260448101919091526001600160a01b0393928790829060649082908c9089165af18015610ec857610d71918991610e9b575b506129c8565b546007820190815491818301809311610e855788948893606492556002541691604051958693849263743865b360e11b84523360048501528a602485015260448401525af1918215610e7a578692610e20575b50907fc3b7539e996dc1d1252af1e3c72474162b7a9c7cc7411ca8905732eaf6fff32894600c83610dfc84600a608099989701612a0c565b8389520181528260408820556040519384528301523360408301526060820152a180f35b939291508484813d8311610e73575b610e3981836127fb565b81010312610e6e57925191929091907fc3b7539e996dc1d1252af1e3c72474162b7a9c7cc7411ca8905732eaf6fff328610dc4565b600080fd5b503d610e2f565b6040513d88823e3d90fd5b634e487b7160e01b600052601160045260246000fd5b610ebb9150883d8a11610ec1575b610eb381836127fb565b8101906129b0565b38610d6b565b503d610ea9565b6040513d8a823e3d90fd5b60405162461bcd60e51b815260048101859052600e60248201526d496e76616c69642063686f69636560901b6044820152606490fd5b60405162461bcd60e51b815260048101859052601460248201527310995d1d1a5b99c81c195c9a5bd908195b99195960621b6044820152606490fd5b60405162461bcd60e51b815260048101849052601560248201527450726f6a656374206973206e6f742061637469766560581b6044820152606490fd5b503461031d57610f913661274e565b9190815260046020526040812090815483101561031d576020610fb484846127a4565b90546040519160031b1c8152f35b503461031d57602080600319360112610b97576003546001600160a01b039060043590610ff29083163314612889565b61100c610bcc826000526006602052604060002054151590565b80845260068352604084209260ff9060089061102c838388015416612af2565b600d860191838354166112785761104585979397612bda565b95611051871515612b35565b61106060079788860154612b76565b948994600a01855b81548110156112285761107b81836127a4565b90549060031b1c898d528a87528c8160408220915287528c8460408220541680611209575b6110b5575b50506110b0906128cc565b611068565b9190978560025416888a6024604051809481936331a9108f60e11b835260048301525afa80156111c3578b8a918e87916111ce575b87528a835260408088208e89528452808820805460ff1916600190811790915554905163a9059cbb60e01b81526001600160a01b0390921660048301526024820192909252925082908916818781604481015b03925af19182156111c3576111817fcf74a49913b7caeaf25aa1eaa8b40b1a16e1a7a4e600b78348ba86301e354d5b93611186936110b097916111a6575b50612b96565b6128cc565b604080518d8152602081019b909b528a018b905298606090a1908c6110a5565b6111bd91508c8d3d10610ec157610eb381836127fb565b3861117b565b6040513d86823e3d90fd5b50505081813d8311611202575b6111e581836127fb565b81010312610b8f57888b8d6111fc61113d94612a4a565b906110ea565b503d6111db565b508a90528587528c8160408220915287528c84604082205416156110a0565b50895460ff19166001178a5560408051898152602081018890529081018890528b907fa31a8a5a68ca350cb33920042bb6978feb068a0c0ffaf4b04449a9adb2a2fbb79080606081015b0390a180f35b60405162461bcd60e51b815260048101839052601a60248201527f5072697a657320616c72656164792064697374726962757465640000000000006044820152606490fd5b503461031d578060031936011261031d5780546112d981612d42565b91805b8281106112f95760405160208082528190610c439082018761271a565b60018101808211611318579061131391610c918287612d74565b6112dc565b634e487b7160e01b83526011600452602483fd5b503461031d578060031936011261031d576003546040516001600160a01b039091168152602090f35b503461031d576113643661274e565b61137e610bcc836000526006602052604060002054151590565b818352602091600683526040842061139c60ff600883015416612af2565b6002546040516331a9108f60e11b8152600481018590526001600160a01b03929186908290602490829087165afa80156115b557879061157b575b6113e5915083163314612a5e565b8286526007855260408620848752855260ff60408720541615611541578286526008855260408620848752855260ff6040872054166115045761144090600761142d85612bda565b91611439831515612b35565b0154612b76565b8286526008855260408087208588528652808720805460ff1916600190811790915554905163a9059cbb60e01b815233600482015260248101839052928691849160449183918b91165af1948515610e7a577fcf74a49913b7caeaf25aa1eaa8b40b1a16e1a7a4e600b78348ba86301e354d5b95611272936114ca9289926114e7575b5050612b96565b604051938493846040919493926060820195825260208201520152565b6114fd9250803d10610ec157610eb381836127fb565b38806114c3565b60405162461bcd60e51b8152600481018690526015602482015274141c9a5e9948185b1c9958591e4818db185a5b5959605a1b6044820152606490fd5b60405162461bcd60e51b8152600481018690526012602482015271139bdd081dda5b9b9a5b99c81d1a58dad95d60721b6044820152606490fd5b508581813d83116115ae575b61159181836127fb565b810103126115aa576115a56113e591612a4a565b6113d7565b8680fd5b503d611587565b6040513d89823e3d90fd5b503461031d578060031936011261031d576001546040516001600160a01b039091168152602090f35b503461031d576115f83661274e565b600361160e60018060a01b038254163314612889565b611628610bcc846000526006602052604060002054151590565b828452602090600682526040852090600682015442106117b4576008820180549060ff821661176f5760048401548610156117315785600985015560019283918260ff19809516179055600b8501838154169055600d850183815416905588600c600a87019601925b6116c9575b897ff70a893b383704038abe495833789918f1f6d9c5f28921df262d13b96433651460408b8b8b8351928352820152a180f35b855481101561172c5790611702828b8a60406116e78a98978c6127a4565b905490871b1c92838152878d5220541461170a575b506128cc565b909192611691565b8b8d5260078a5260408d20908d52895260408c208587825416179055386116fc565b611696565b60405162461bcd60e51b815260048101869052601660248201527524b73b30b634b2103bb4b73734b7339037b83a34b7b760511b6044820152606490fd5b60405162461bcd60e51b815260048101869052601860248201527f526573756c7420616c726561647920616e6e6f756e63656400000000000000006044820152606490fd5b60405162461bcd60e51b815260048101849052601760248201527f526573756c742074696d65206e6f7420726561636865640000000000000000006044820152606490fd5b503461031d578060031936011261031d576002546040516001600160a01b039091168152602090f35b503461031d576118313661274e565b9061184c610bcc826000526006602052604060002054151590565b60025460405163fcce488360e01b8152600481018490526001600160a01b0391821691906020908181602481875afa9081156115b5578791611abe575b5015611a865783865260058152604086208587528152604086205415611a42576024908487526005815260408720868852815280604088205494604051938480926331a9108f60e11b82528a60048301525afa9182156115b5578792611a0b575b506001546040516323b872dd60e01b81523360048201526001600160a01b038416602482015260448101869052908290829060649082908c9089165af18015610ec85761193d9189916119f457506129c8565b868360025416803b15610b975781809160446040518094819363fd4f0b4f60e01b83528d60048401523360248401525af180156119e9576119cb575b50937fe3b74443da83ac244e4695af01f47e1b8620be9691a2812103aa78686e1509759360a0938888946119ad8287612c59565b6040519586528501521660408301523360608301526080820152a180f35b6119da909695949392966127d2565b6115aa57909192938638611979565b6040513d84823e3d90fd5b610ebb9150833d8511610ec157610eb381836127fb565b9080925081813d8311611a3b575b611a2381836127fb565b810103126115aa57611a3490612a4a565b90386118ea565b503d611a19565b6064906040519062461bcd60e51b82526004820152601860248201527f5469636b6574206e6f7420696e206f7264657220626f6f6b00000000000000006044820152fd5b6064906040519062461bcd60e51b825260048201526011602482015270151a58dad95d081b9bdd081b1a5cdd1959607a1b6044820152fd5b611ad59150823d8411610ec157610eb381836127fb565b38611889565b503461031d576020908160031936011261031d576004356001600160a01b0381811691829003610b9357839060015416916024604051809481936370a0823160e01b835260048301525afa918215611b695791611b3c575b50604051908152f35b90508181813d8311611b62575b611b5381836127fb565b81010312610e6e575138611b33565b503d611b49565b604051903d90823e3d90fd5b503461031d576040602091611b893661274e565b9082526005845282822090825283522054604051908152f35b503461031d57602036600319011261031d57600435611bcc60018060a01b03600354163314612889565b611be6610bcc826000526006602052604060002054151590565b8082526006602052600b60408320019081549060ff821615611c37577f32619b1c1bac9b073234f8ace80ba5659d4a461276966921ca62cc24a32c7ff39260209260ff19169055604051908152a180f35b60405162461bcd60e51b815260206004820152601860248201527f50726f6a65637420616c726561647920696e61637469766500000000000000006044820152606490fd5b503461031d576020908160031936011261031d5760043591611ca960018060a01b03600354163314612889565b611cc3610bcc846000526006602052604060002054151590565b828252600681526040822092600b840180549460ff8616611db35760ff600882015416611d705760060154421015611d2b5760017fa24f98fafda171640bd6bc2dfff773d30beccd904d6c386e658a1c79f9e76663949560ff1916179055604051908152a180f35b60405162461bcd60e51b815260048101849052601f60248201527f43616e6e6f7420616374697661746520657870697265642070726f6a656374006044820152606490fd5b6064846040519062461bcd60e51b825280600483015260248201527f43616e6e6f742061637469766174652066696e69736865642070726f6a6563746044820152fd5b60405162461bcd60e51b815260048101859052601660248201527550726f6a65637420616c72656164792061637469766560501b6044820152606490fd5b503461031d578060031936011261031d5760209054604051908152f35b503461031d576040602091611e223661274e565b90611e3d610bcc826000526006602052604060002054151590565b825260068452600c8383200190825283522054604051908152f35b503461031d57611e673661274e565b6002546040516331a9108f60e11b8152600481018490529192916001600160a01b0391821691602091908282602481875afa9081156115b557879161205a575b611eb49250163314612a5e565b604051600162665f9d60e01b0319815260048101849052608081602481865afa908115610e7a57869161202c575b50519182865260068252611efb6040872054151561292c565b8286526006825260ff600b6040882001541615611ff257859083825260068352611f2f60ff60086040852001541615612971565b803b15610b97576040516308c943e160e21b815260048101869052602481018790523360448201529082908290606490829084905af180156119e957611fde575b509361127291837f7fcebcf72427ecf9710bb03f1e03a6eb59b7eef703a03dd385ba24259a76550e965260048152611fab8560408920612a0c565b83875260058152604087209085885252806040872055604051938493846040919493926060820195825260208201520152565b611fe7906127d2565b610b8b578438611f70565b60405162461bcd60e51b815260048101839052601260248201527150726f6a656374206e6f742061637469766560701b6044820152606490fd5b61204d915060803d8111612053575b61204581836127fb565b810190612a9d565b38611ee2565b503d61203b565b90508282813d831161208b575b61207181836127fb565b810103126115aa57612085611eb492612a4a565b90611ea7565b503d612067565b503461031d57602036600319011261031d576002546040516331a9108f60e11b81526004803590820181905292916001600160a01b0390811691602081602481865afa9081156111c35784916121f7575b506120f091163314612a5e565b604051600162665f9d60e01b0319815260048101849052608081602481855afa9081156121ce5783916121d9575b505190803b15610b935782809160246040518094819363bd94b00560e01b83528960048401525af180156121ce5761219d575b508261217f7fed081868210136937325a29ee2927fb469af08bdf043981309d97e171b80f0a9939483612c59565b60408051928352602083019190915233908201528060608101611272565b916121c87fed081868210136937325a29ee2927fb469af08bdf043981309d97e171b80f0a9936127d2565b91612151565b6040513d85823e3d90fd5b6121f1915060803d81116120535761204581836127fb565b3861211e565b90506020813d821161222d575b81612211602093836127fb565b81010312610b8f57906122266120f092612a4a565b90916120e3565b3d9150612204565b503461031d578060031936011261031d57610c43612251612e2c565b60405191829160208352602083019061271a565b503461031d57602036600319011261031d57600254604051600162665f9d60e01b0319815260048035908201526001600160a01b0390911690608081602481855afa9081156121ce578391612499575b5080518352600660205260408320926004358152600c8401602052604081205490600985015460048601926123006122f4836122fa6122f485896127a4565b50612d88565b966127a4565b948051966020820151946040830151926040519263fcce488360e01b84526004356004850152602084602481845afa9384156121ce5790839291602495612477575b50602090604051958680926308ade49b60e11b825260043560048301525afa9384156119e9578294612443575b505181526007602052604081206004358252602052604090205460ff169260018b0161239a90612d88565b9a6123a760028201612d88565b906003016123b490612d88565b906040519c8d9c8d528c6101a06020819201528d016123d291612764565b8c810360408e01526123e391612764565b8b810360608d01526123f491612764565b9660808b015260a08a0152151560c089015260e0880152151561010087015261012086015261014085015283810361016085015261243191612764565b828103610180840152610c4391612764565b9093506020813d60201161246f575b8161245f602093836127fb565b81010312610b975751923861236f565b3d9150612452565b602091945061249290823d8411610ec157610eb381836127fb565b9390612342565b6124b1915060803d81116120535761204581836127fb565b386122b5565b503461031d5760ff60406020926124cd3661274e565b9082526007855282822090825284522054166040519015158152f35b503461031d57602080600319360112610b97576001600160a01b03600435818116939084900361031d57805491816001908260025416915b85811115612644575061253390612d42565b9583926001955b808711156125555760405188815280610c43818b018c61271a565b859791929394959896985b89895260068352600a60408a2001805482101561262a5781612581916127a4565b90549060031b1c6040516331a9108f60e11b815281600482015284816024818b5afa90811561261f57879187918d916125e6575b5016146125cc575b506125c7906128cc565b612560565b876125df91610c916125c7949a8c612d74565b96906125bd565b925050508481813d8311612618575b6125ff81836127fb565b81010312610b8357856126128892612a4a565b386125b5565b503d6125f5565b6040513d8d823e3d90fd5b5050959761263e90979594939291976128cc565b9561253a565b959196939094815b87835260068452600a60408420018054821015612704578161266d916127a4565b9054604051916331a9108f60e11b835260031b1c600482015284816024818d5afa9081156111c3578791879186916126cb575b5016146126b6575b6126b1906128cc565b61264c565b956126c36126b1916128cc565b9690506126a8565b925050508481813d83116126fd575b6126e481836127fb565b81010312610b8f57856126f78892612a4a565b386126a0565b503d6126da565b5050949093969195612715906128cc565b612521565b90815180825260208080930193019160005b82811061273a575050505090565b83518552938101939281019260010161272c565b6040906003190112610e6e576004359060243590565b919082519283825260005b848110612790575050826000602080949584010152601f8019910116010190565b60208183018101518483018201520161276f565b80548210156127bc5760005260206000200190600090565b634e487b7160e01b600052603260045260246000fd5b6001600160401b0381116127e557604052565b634e487b7160e01b600052604160045260246000fd5b90601f801991011681019081106001600160401b038211176127e557604052565b81601f82011215610e6e578035906001600160401b0382116127e55760405192612850601f8401601f1916602001856127fb565b82845260208383010111610e6e57816000926020809301838601378301015290565b6001600160401b0381116127e55760051b60200190565b1561289057565b60405162461bcd60e51b815260206004820152601460248201527313db9b1e481bdc9858db194818d85b8818d85b1b60621b6044820152606490fd5b6000198114610e855760010190565b90600182811c9216801561290b575b60208310146128f557565b634e487b7160e01b600052602260045260246000fd5b91607f16916128ea565b818110612920575050565b60008155600101612915565b1561293357565b60405162461bcd60e51b8152602060048201526016602482015275141c9bda9958dd08191bd95cc81b9bdd08195e1a5cdd60521b6044820152606490fd5b1561297857565b60405162461bcd60e51b815260206004820152601060248201526f141c9bda9958dd08199a5b9a5cda195960821b6044820152606490fd5b90816020910312610e6e57518015158103610e6e5790565b156129cf57565b60405162461bcd60e51b8152602060048201526015602482015274151bdad95b881d1c985b9cd9995c8819985a5b1959605a1b6044820152606490fd5b90815491600160401b8310156127e55782612a2f916001612a48950181556127a4565b90919082549060031b91821b91600019901b1916179055565b565b51906001600160a01b0382168203610e6e57565b15612a6557565b60405162461bcd60e51b815260206004820152601060248201526f2737ba103a34b1b5b2ba1037bbb732b960811b6044820152606490fd5b90816080910312610e6e5760405190608082018281106001600160401b038211176127e557612aea9160609160405280518452602081015160208501526040810151604085015201612a4a565b606082015290565b15612af957565b60405162461bcd60e51b8152602060048201526014602482015273141c9bda9958dd081b9bdd08199a5b9a5cda195960621b6044820152606490fd5b15612b3c57565b60405162461bcd60e51b81526020600482015260126024820152714e6f2077696e6e696e67207469636b65747360701b6044820152606490fd5b8115612b80570490565b634e487b7160e01b600052601260045260246000fd5b15612b9d57565b60405162461bcd60e51b8152602060048201526015602482015274141c9a5e99481d1c985b9cd9995c8819985a5b1959605a1b6044820152606490fd5b906000828152602090600682526040808220918093600a829401908154945b858110612c0b57509496505050505050565b88845260078252848420612c1f82856127a4565b90549060031b1c8552825260ff8585205416612c44575b612c3f906128cc565b612bf9565b95612c51612c3f916128cc565b969050612c36565b906000908282526004928360205260408320835b815480821015612d36578490612c8383856127a4565b929054600393841b1c14612ca1575050612c9c906128cc565b612c6d565b9160009791949596971992838101908111612d235790612a2f612cc7612cd493876127a4565b905490881b1c91866127a4565b8254908115612d105750810192612ceb84846127a4565b81939154921b1b19169055555b82526005602052604082209082526020526040812055565b634e487b7160e01b885260319052602487fd5b634e487b7160e01b895260118352602489fd5b50505090919250612cf8565b90612d4c82612872565b612d5960405191826127fb565b8281528092612d6a601f1991612872565b0190602036910137565b80518210156127bc5760209160051b010190565b9060405191826000825492612d9c846128db565b908184526001948581169081600014612e095750600114612dc6575b5050612a48925003836127fb565b9093915060005260209081600020936000915b818310612df1575050612a4893508201013880612db8565b85548884018501529485019487945091830191612dd9565b915050612a4894506020925060ff191682840152151560051b8201013880612db8565b600080548015612f10578160015b82811115612ebb5750612e4c90612d42565b918060015b83811115612e60575050505090565b80825260066020526040822060ff80600b830154169182612eac575b5050612e91575b612e8c906128cc565b612e51565b91612ea48184610c91612e8c9489612d74565b929050612e83565b60080154161590503880612e7c565b80845260066020526040842060ff80600b830154169182612f01575b5050612eec575b612ee7906128cc565b612e3a565b90612ef9612ee7916128cc565b919050612ede565b60080154161590503880612ed7565b5060405190602082018281106001600160401b03821117612f375760405280825236813790565b634e487b7160e01b82526041600452602482fdfea2646970667358221220280249c2a3ad3befe1b07b7bfcb0314d3fe121eee809dcbe04ace6b3ac3d3f1e64736f6c63430008140033",
  "linkReferences": {},
  "deployedLinkReferences": {}
}